:100000000C9462000C948A000C948A000C948A0070
:100010000C948A000C948A000C948A000C948A0038
:100020000C948A000C948A000C948A000C948A0028
:100030000C948A000C948A000C948A000C948A0018
:100040000C9439020C948A000C94A9020C9483023B
:100050000C948A000C948A000C948A000C948A00F8
:100060000C948A000C948A000000000023002600F3
:10007000290000000000240027002A0000000000E2
:10008000250028002B0004040404040404040202D4
:100090000202020203030303030301020408102007
:1000A0004080010204081020010204081020000012
:1000B0000008000201000003040700000000000027
:1000C0000000270411241FBECFEFD8E0DEBFCDBF54
:1000D00011E0A0E0B1E0E4E4F9E002C005900D9287
:1000E000A831B107D9F721E0A8E1B1E001C01D9224
:1000F000AE3BB207E1F710E0C2E6D0E004C02197C2
:10010000FE010E949504C136D107C9F70E94200361
:100110000C94A0040C94000090E0FC01E255FF4F09
:100120002491FC01E656FF4F3491FC01EA57FF4F42
:10013000E491EE2309F43CC0222339F1233091F0FD
:1001400038F42130A9F0223001F584B58F7D12C03A
:10015000273091F02830A1F02430B9F4809180004C
:100160008F7D03C0809180008F77809380000DC0C9
:1001700084B58F7784BD09C08091B0008F7703C0AC
:100180008091B0008F7D8093B000F0E0EE0FFF1FF4
:10019000E458FF4FA591B4919FB7F894611104C042
:1001A0008C913095382302C0EC913E2B3C939FBF3D
:1001B0000895CF93DF9390E0FC01E656FF4F249122
:1001C000FC01EA57FF4F8491882361F190E0880F8A
:1001D000991FFC01EE58FF4FC591D491FC01E458E2
:1001E000FF4FA591B491611109C09FB7F894888120
:1001F000209582238883EC912E230BC0623061F41A
:100200009FB7F8948881322F309583238883EC91AF
:100210002E2B2C939FBF06C08FB7F894E8812E2B0E
:1002200028838FBFDF91CF910895CF92DF92EF9215
:10023000FF920F931F93CF93DF936C017A018B0191
:10024000C0E0D0E0CE15DF0581F0D8016D918D01C1
:10025000D601ED91FC910190F081E02DC601099548
:10026000892B11F02196EECF7E01C701DF91CF914E
:100270001F910F91FF90EF90DF90CF900895089518
:1002800080E090E00895FC01538D448D252F30E0EF
:10029000842F90E0821B930B541710F0CF96089593
:1002A00001970895FC01918D828D981761F0828DE0
:1002B000DF01A80FB11D5D968C91928D9F5F9F739A
:1002C000928F90E008958FEF9FEF0895FC01918D3C
:1002D000828D981731F0828DE80FF11D858D90E0A9
:1002E00008958FEF9FEF0895FC01918D228D892F46
:1002F00090E0805C9F4F821B91098F73992708952E
:1003000081E291E00E94740121E0892B09F420E050
:10031000822F0895FC01848DDF01A80FB11DA35A1F
:10032000BF4F2C91848D90E001968F739927848F15
:10033000A689B7892C93A089B1898C918370806438
:100340008C93938D848D981306C00288F389E02DD9
:1003500080818F7D80830895EF92FF920F931F938A
:10036000CF93DF93EC0181E0888F9B8D8C8D981368
:1003700005C0E889F989808185FD26C0F62E0B8DA0
:1003800010E00F5F1F4F0F731127E02E8C8DE812C6
:100390000CC00FB607FCFACFE889F989808185FF88
:1003A000F5CFCE010E948A01F1CF8B8DFE01E80FBF
:1003B000F11DE35AFF4FF0829FB7F8940B8FEA8943
:1003C000FB89808180620AC09FB7F894EE89FF891B
:1003D0006083E889F98980818370806480839FBF0E
:1003E00081E090E0DF91CF911F910F91FF90EF900E
:1003F0000895CF93DF93EC01888D8823C9F0EA89B3
:10040000FB89808185FD05C0A889B9898C9186FD0D
:100410000FC00FB607FCF5CF808185FFF2CFA8890A
:10042000B9898C9185FFEDCFCE010E948A01E7CF7B
:10043000DF91CF91089580E090E0892B29F00E9410
:10044000800181110C9400000895009769F0FC016F
:1004500001900020E9F73197AF01481B590BBC010F
:1004600081E291E00C94150180E090E008950E94F3
:100470009B041F920F920FB60F9211242F933F935C
:100480008F939F93AF93BF9380911D0190911E0115
:10049000A0911F01B091200130911C0123E0230F96
:1004A0002D3720F40196A11DB11D05C026E8230FAC
:1004B0000296A11DB11D20931C0180931D019093F4
:1004C0001E01A0931F01B09320018091180190910B
:1004D0001901A0911A01B0911B010196A11DB11D36
:1004E0008093180190931901A0931A01B0931B01F6
:1004F000BF91AF919F918F913F912F910F900FBE20
:100500000F901F9018951F920F920FB60F92112403
:100510002F933F934F935F936F937F938F939F930B
:10052000AF93BF93EF93FF9381E291E00E948A0122
:10053000FF91EF91BF91AF919F918F917F916F91BB
:100540005F914F913F912F910F900FBE0F901F9091
:1005500018951F920F920FB60F9211242F938F931D
:100560009F93EF93FF93E0913101F09132018081ED
:10057000E0913701F091380182FD12C090818091A5
:100580003A018F5F8F7320913B01821751F0E09108
:100590003A01F0E0EF5DFE4F958F80933A0101C084
:1005A0008081FF91EF919F918F912F910F900FBEBE
:1005B0000F901F901895CF92DF92EF92FF920F93BA
:1005C0001F93E82FF92F05C00150110921093109A6
:1005D00061F1908196239417B9F305C00150110978
:1005E0002109310911F1908196239413F7CFC12C81
:1005F000D12CE12CF12C0AC08FEFC81AD80AE80AD6
:10060000F80A0C151D052E053F0579F0808186231B
:10061000841791F36C2D7D2D8E2D9F2D1F910F91A1
:10062000FF90EF90DF90CF90089560E070E080E061
:1006300090E01F910F91FF90EF90DF90CF90089581
:10064000CF93DF93CDB7DEB7A1970FB6F894DEBF97
:100650000FBECDBF789484B5826084BD84B58160BF
:1006600084BD85B5826085BD85B5816085BD80917D
:100670006E00816080936E001092810080918100F5
:1006800082608093810080918100816080938100ED
:10069000809180008160809380008091B1008460AF
:1006A0008093B1008091B00081608093B000809110
:1006B0007A00846080937A0080917A0082608093CF
:1006C0007A0080917A00816080937A0080917A002C
:1006D000806880937A001092C10061E08CE00E94F3
:1006E000D900E0913101F091320182E08083E09104
:1006F0002D01F0912E011082E0912F01F091300137
:100700008FEC808310923901E0913501F091360130
:1007100086E08083E0913301F09134018081806133
:100720008083E0913301F09134018081886080837F
:10073000E0913301F0913401808180688083E09101
:100740003301F091340180818F7D808393E2292EE3
:10075000312C2AE3822E912CA12CB12C3AE0432E8D
:10076000512C612C712C61E083E00E94D90060E083
:1007700083E00E948C0083E090E00197F1F761E054
:1007800083E00E948C00C1010197F1F760E083E0F3
:100790000E948C0060E082E00E94D900ECE9F0E069
:1007A0006491E8E8F0E08491E82FF0E0EE0FFF1F9D
:1007B000E859FF4F8591949100E412E42FE030E076
:1007C000462F0E94DB02611571058105910549F0F4
:1007D000DC01CB010196A11DB11DBC01CD019F70B3
:1007E00003C060E070E0CB01A50194010E94760493
:1007F00069017A0119A28E010F5D1F4FCA01B9016B
:10080000A30192010E945404605DF80162938F017C
:10081000211531054105510589F7CF010E942502B7
:1008200082E191E00E94250285E191E00E9425028B
:10083000FBE1CF16D104E104F10414F461E001C03E
:1008400060E08CE00E948C000E941B028CCFE1E2F1
:10085000F1E01382128288EE93E0A0E0B0E084839E
:100860009583A683B78384E091E09183808385ECB0
:1008700090E09587848784EC90E09787868780EC6A
:1008800090E0918B808B81EC90E0938B828B82EC5B
:1008900090E0958B848B86EC90E0978B868B118E05
:1008A000128E138E148E0895A1E21A2EAA1BBB1B62
:1008B000FD010DC0AA1FBB1FEE1FFF1FA217B3072C
:1008C000E407F50720F0A21BB30BE40BF50B661F42
:1008D000771F881F991F1A9469F760957095809506
:1008E00090959B01AC01BD01CF010895052E97FBAA
:1008F0001EF400940E948D0457FD07D00E945404FA
:1009000007FC03D04EF40C948D045095409530951F
:1009100021953F4F4F4F5F4F08959095809570956B
:1009200061957F4F8F4F9F4F0895EE0FFF1F0590EA
:10093000F491E02D099481E090E0F8940C94A004E7
:04094000F894FFCF59
:1009440000000000AC0115014301F90174015201DA
:080954006601636D000D0A004D
:00000001FF
