:100000000C946C000C9494000C9494000C94940048
:100010000C9494000C9494000C9494000C94940010
:100020000C9494000C9494000C9494000C94940000
:100030000C9494000C9494000C9494000C949400F0
:100040000C94BA040C9494000C942A050C940405A6
:100050000C9494000C9494000C9494000C949400D0
:100060000C9494000C94940096019D01A901BA018E
:10007000BC01C301CF01E001F601F801000000005E
:1000800023002600290000000000240027002A0089
:1000900000000000250028002B00040404040404D0
:1000A0000404020202020202030303030303010227
:1000B00004081020408001020408102001020408F6
:1000C00010200000000800020100000304070000E7
:1000D000000000000000A10511241FBECFEFD8E0F2
:1000E000DEBFCDBF11E0A0E0B1E0E4ECF4E102C07E
:1000F00005900D92AA34B107D9F722E0AAE4B1E045
:1001000001C01D92AE30B207E1F710E0CCE6D0E0BE
:1001100004C02197FE010E94410ACB36D107C9F7DE
:100120000E9408060C94600A0C940000E7E5F1E0D8
:10013000A089B18982E08C93A485B5851C92A6859F
:10014000B7858FEC8C93108EA489B58986E08C934B
:10015000A289B3898C9180618C93A289B3898C9197
:1001600088608C93A289B3898C9180688C93028873
:10017000F389E02D80818F7D80830895833081F025
:1001800028F4813099F08230A1F008958730A9F0E9
:100190008830B9F08430D1F4809180008F7D03C025
:1001A000809180008F7780938000089584B58F7749
:1001B00002C084B58F7D84BD08958091B0008F7793
:1001C00003C08091B0008F7D8093B00008951F938D
:1001D000CF93DF93282F30E0F901EE53FF4F849146
:1001E000F901E255FF4FD491F901E656FF4FC49152
:1001F000CC23C1F0162F81110E94BE00EC2FF0E03D
:10020000EE0FFF1FE057FF4FA591B4919FB7F894F1
:10021000111104C08C91D095D82302C0EC91DE2B33
:10022000DC939FBFDF91CF911F910895CF93DF9310
:10023000EC018091FC019091FD01029709F5C1301C
:10024000D10569F024F42097D9F460E009C0C230E8
:10025000D10561F0C330D10599F460E008C061E0D8
:10026000809100020E94E70061E006C061E0809199
:1002700000020E94E70060E0809102020E94E70015
:100280008091FC019091FD01049709F03FC0C130BD
:10029000D105B9F04CF42097C9F561E080910002D6
:1002A0000E94E70060E013C0C230D105D9F0C3302E
:1002B000D10561F561E0809100020E94E70060E0F5
:1002C00017C060E0809100020E94E70061E0809129
:1002D00002020E94E70061E0809104020E94E700B0
:1002E00060E010C060E0809100020E94E70061E0E1
:1002F000809102020E94E70060E0809104020E9467
:10030000E70061E0809106020E94E7008091FC0115
:100310009091FD01059709F086C0CA30D10508F01B
:1003200082C0FE01EC5CFF4F0C94410A60E08091BA
:1003300000020E94E70061E061C060E0809100027D
:100340000E94E70061E0809102020E94E70060E005
:100350005AC060E0809100020E94E70061E0809155
:1003600002020E94E70060E0809104020E94E70020
:1003700061E04EC060E001C061E0809100020E9437
:10038000E70061E006C061E0809100020E94E700A2
:1003900060E0809102020E94E70060E00BC061E033
:1003A000809100020E94E70060E0809102020E94BA
:1003B000E70061E0809104020E94E70061E010C064
:1003C00061E0809100020E94E70060E080910202FB
:1003D0000E94E70061E0809104020E94E70060E073
:1003E000809106020E94E70060E017C061E001C052
:1003F00060E0809100020E94E70060E080910202CC
:100400000E94E70061E0809104020E94E70060E042
:10041000809106020E94E70061E080910802DF916E
:10042000CF910C94E700DF91CF910895CF93DF93A4
:1004300090E0FC01E255FF4F2491FC01E656FF4F8E
:100440008491882361F190E0880F991FFC01EA579D
:10045000FF4FC591D491FC01E057FF4FA591B49196
:10046000611109C09FB7F894888120958223888301
:10047000EC912E230BC0623061F49FB7F894888111
:10048000322F309583238883EC912E2B2C939FBFA2
:1004900006C08FB7F894E8812E2B28838FBFDF9199
:1004A000CF9108953FB7F8948091530190915401F2
:1004B000A0915501B091560126B5A89B05C02F3FCC
:1004C00019F00196A11DB11D3FBFBA2FA92F982F7A
:1004D0008827820F911DA11DB11DBC01CD0142E0F5
:1004E000660F771F881F991F4A95D1F708954F927D
:1004F0005F926F927F928F929F92AF92BF92EF9294
:10050000FF920F931F93CF93DF93EC0197FF04C0EB
:10051000CC27DD27C81BD90B181619063CF481E03F
:1005200090E09093F5018093F40106C0892B21F0AF
:100530001092F5011092F40104E010E08AE0E82E38
:10054000F12C209709F468C00E94520280900A02A0
:1005500090900B02A0900C02B0900D022B013C0178
:10056000481859086A087B088090F6019090F701B6
:10057000A090F801B090F901481459046A047B0472
:1005800000F360930A0270930B0280930C02909325
:100590000D022091F4013091F5018091FE019091BE
:1005A000FF012130310589F401969093FF0180937A
:1005B000FE012091FA013091FB0182179307C1F4EB
:1005C0001092FF011092FE0113C0892B41F480911B
:1005D000FA019091FB019093FF018093FE018091BD
:1005E000FE019091FF0101979093FF018093FE011E
:1005F00021972091FC013091FD018091FE019091A5
:10060000FF012530310511F4B70101C0B8010E9486
:10061000EC090E94160195CFDF91CF911F910F91A8
:10062000FF90EF90BF90AF909F908F907F906F90D2
:100630005F904F9008958F929F92AF92BF92CF920A
:10064000DF92EF92FF926B017C010E9452024B01FC
:100650005C01C114D104E104F104F1F00E945202E2
:10066000DC01CB0188199909AA09BB09883E93408E
:10067000A105B10570F321E0C21AD108E108F10823
:1006800088EE880E83E0981EA11CB11CC114D10411
:10069000E104F10419F7DDCFFF90EF90DF90CF90E8
:1006A000BF90AF909F908F900895CF92DF92EF927E
:1006B000FF920F931F93CF93DF936C017A018B010D
:1006C000C0E0D0E0CE15DF0581F0D8016D918D013D
:1006D000D601ED91FC910190F081E02DC6010995C4
:1006E000892B11F02196EECF7E01C701DF91CF91CA
:1006F0001F910F91FF90EF90DF90CF900895089594
:1007000080E090E00895FC01538D448D252F30E06A
:10071000842F90E0821B930B541710F0CF9608950E
:1007200001970895FC01918D828D981761F0828D5B
:10073000DF01A80FB11D5D968C91928D9F5F9F7315
:10074000928F90E008958FEF9FEF0895FC01918DB7
:10075000828D981731F0828DE80FF11D858D90E024
:1007600008958FEF9FEF0895FC01918D228D892FC1
:1007700090E0805C9F4F821B91098F7399270895A9
:1007800087E591E00E94B40321E0892B09F420E081
:10079000822F0895FC01848DDF01A80FB11DA35A9B
:1007A000BF4F2C91848D90E001968F739927848F91
:1007B000A689B7892C93A089B1898C9183708064B4
:1007C0008C93938D848D981306C00288F389E02D55
:1007D00080818F7D80830895EF92FF920F931F9306
:1007E000CF93DF93EC0181E0888F9B8D8C8D9813E4
:1007F00005C0E889F989808185FD26C0F62E0B8D1C
:1008000010E00F5F1F4F0F731127E02E8C8DE81241
:100810000CC00FB607FCFACFE889F989808185FF03
:10082000F5CFCE010E94CA03F1CF8B8DFE01E80FF8
:10083000F11DE35AFF4FF0829FB7F8940B8FEA89BE
:10084000FB89808180620AC09FB7F894EE89FF8996
:100850006083E889F98980818370806480839FBF89
:1008600081E090E0DF91CF911F910F91FF90EF9089
:100870000895CF93DF93EC01888D8823C9F0EA892E
:10088000FB89808185FD05C0A889B9898C9186FD89
:100890000FC00FB607FCF5CF808185FFF2CFA88986
:1008A000B9898C9185FFEDCFCE010E94CA03E7CFB5
:1008B000DF91CF91089580E090E0892B29F00E948C
:1008C000C00381110C9400000895009769F0FC01A9
:1008D00001900020E9F73197AF01481B590BBC018B
:1008E00087E591E00C94550380E090E008958F92A5
:1008F0009F92AF92BF920F931F93CF93DF93CDB789
:10090000DEB7A1970FB6F894DEBF0FBECDBF19A218
:10091000423008F44AE08E010F5D1F4F842E912C67
:10092000A12CB12CA50194010E94000AE62FB90167
:10093000CA0101501109EA3014F4E05D01C0E95C1C
:10094000D801EC93232B242B252B61F7C8010E949F
:100950006504A1960FB6F894DEBF0FBECDBFDF9140
:10096000CF911F910F91BF90AF909F908F9008955E
:100970000E945B0A1F920F920FB60F9211242F93C1
:100980003F938F939F93AF93BF9380914F0190912B
:100990005001A0915101B091520130914E0123E0DC
:1009A000230F2D3720F40196A11DB11D05C026E8A7
:1009B000230F0296A11DB11D20934E0180934F017C
:1009C00090935001A0935101B09352018091530133
:1009D00090915401A0915501B09156010196A11D2D
:1009E000B11D8093530190935401A0935501B0938E
:1009F0005601BF91AF919F918F913F912F910F9091
:100A00000FBE0F901F9018951F920F920FB60F9266
:100A100011242F933F934F935F936F937F938F9303
:100A20009F93AF93BF93EF93FF9387E591E00E946D
:100A3000CA03FF91EF91BF91AF919F918F917F91E9
:100A40006F915F914F913F912F910F900FBE0F903B
:100A50001F9018951F920F920FB60F9211242F938B
:100A60008F939F93EF93FF93E0916701F09168015B
:100A70008081E0916D01F0916E0182FD12C0908144
:100A8000809170018F5F8F7320917101821751F0F7
:100A9000E0917001F0E0E95AFE4F958F809370016C
:100AA00001C08081FF91EF919F918F912F910F90C5
:100AB0000FBE0F901F901895CF92DF92EF92FF928A
:100AC0000F931F93E82FF92F05C001501109210939
:100AD000310961F1908196239417B9F305C0015053
:100AE00011092109310911F1908196239413F7CF4F
:100AF000C12CD12CE12CF12C0AC08FEFC81AD80AD6
:100B0000E80AF80A0C151D052E053F0579F08081CD
:100B10008623841791F36C2D7D2D8E2D9F2D1F9193
:100B20000F91FF90EF90DF90CF90089560E070E01C
:100B300080E090E01F910F91FF90EF90DF90CF90B9
:100B400008950F931F93CF93DF93E7E5F1E01382AE
:100B5000128288EE93E0A0E0B0E084839583A683C0
:100B6000B78384E091E09183808385EC90E0958762
:100B7000848784EC90E09787868780EC90E0918B67
:100B8000808B81EC90E0938B828B82EC90E0958B54
:100B9000848B86EC90E0978B868B118E128E138E51
:100BA000148EC4EFD1E01B861A86198218821E8A21
:100BB0001F8A188E198E80E490E09F838E8304E054
:100BC00010E01D870C8785E090E09F878E8786E088
:100BD00090E0998B888B87E090E09B8B8A8B61E01B
:100BE00084E00E94160261E08E850E94160261E098
:100BF00088890E94160261E08A890E9416021D8A75
:100C00001C8A19870887DF91CF911F910F91089552
:100C1000789484B5826084BD84B5816084BD85B5D7
:100C2000826085BD85B5816085BD80916E008160E3
:100C300080936E0010928100809181008260809389
:100C4000810080918100816080938100809180008B
:100C50008160809380008091B10084608093B100B6
:100C60008091B00081608093B00080917A008460B0
:100C700080937A0080917A00826080937A008091DC
:100C80007A00816080937A0080917A0080688093F6
:100C90007A001092C10061E08AE00E94160260E0D2
:100CA0008DE00E94160261E084E00E94160261E07D
:100CB00085E00E94160261E086E00E94160261E073
:100CC00087E00E9416022091FA013091FB01032E69
:100CD000000C440B550B60E077E883E993E00E9439
:100CE000220ACA01B9012CE231E040E050E00E9442
:100CF000220A2093F6013093F7014093F8015093B4
:100D0000F90161E08CE00E9416020E9496000E94A8
:100D1000960082E191E00E94650489E291E00E94E0
:100D2000650460E27EE480E090E00E941B0361E0E5
:100D30008CE00E94160260E08CE00E94E70023E055
:100D4000622E712CC3E2D0E03AE3832E912CA12CC9
:100D5000B12CEFECF0E08491EBEBF0E0F490E7EAFB
:100D6000F0E0E490EE2009F464C181110E94BE001D
:100D7000EE2DF0E0EE0FFF1FE458FF4FA591B49168
:100D80008C91F82209F455C161E08AE00E94E700E5
:100D900081E090E00E94770260E070E0CB010E9469
:100DA0001B0361E083E00E94160260E083E00E9482
:100DB000E700C3010197F1F761E083E00E94E700DB
:100DC000CE010197F1F760E083E00E94E70060E068
:100DD00082E00E941602E0EBF0E06491ECE9F0E0C2
:100DE0008491E82FF0E0EE0FFF1FE458FF4F85914C
:100DF000949100E412E42FE030E0462F0E945C055D
:100E0000611571058105910549F0DC01CB01019661
:100E1000A11DB11DBC01CD019F7003C060E070E059
:100E2000CB01A50194010E94220A69017A014AE0DE
:100E3000C701B6010E9477048CE291E00E9465042C
:100E400089E291E00E946504FBE1CF16D104E10440
:100E5000F10414F461E001C060E08BE00E94E7005F
:100E600081E480937C0080917A00806480937A0092
:100E700080917A0086FDFCCF6091780080917900A6
:100E800070E0782B072E000C880B990B0E94C50888
:100E900060934A0170934B0180934C0190934D01F4
:100EA0008FE291E00E946504C0904A01D0904B010E
:100EB000E0904C01F0904D01A7019601C701B601E9
:100EC0000E94E709882319F08EE391E01AC0160109
:100ED0002701E89457F82FEF3FEF4FE75FE7C20194
:100EE000B1010E94E70981110FC02FEF3FEF4FE7DB
:100EF0005FE7C201B1010E948F0818162CF482E44A
:100F000091E00E94650476C02FEF3FEF4FE75FE46A
:100F1000C701B6010E94750918161CF486E491E019
:100F2000F0CF2FEF3FEF4FE75FECC701B6010E9414
:100F30008F0887FDF3CF20E030E0A901C701B6019B
:100F40000E948F0887FF09C06DE287E591E00E944B
:100F5000EC03F7FAF094F7F8F0942AE037ED43EA5F
:100F60005BE3C701B6010E9423081B012C010E940C
:100F700094086B017C010E94C3089B01AC01C20173
:100F8000B1010E9422081B012C014AE0C701B601F1
:100F90000E9477046EE287E591E00E94EC0320E076
:100FA00030E040E251E4C201B1010E947A091B0124
:100FB0002C010E9494086B01E12CF12C4AE0C7013E
:100FC000B6010E947704C701B6010E94C3089B01C5
:100FD000AC01C201B1010E94220820E030E040E2F1
:100FE00051E40E947A090E94940880E090E04AE06F
:100FF0000E94770420E030E04CE853E460914A011D
:1010000070914B0180914C0190914D010E947509A6
:10101000181614F461E001C060E08CE00E94E70063
:1010200068EE73E080E090E00E941B030E945B0486
:1010300090CE60E08AE00E94E70080E090E00E94AD
:101040007702AFCE5058BB27AA270E943A080C94CB
:101050003B090E942D0938F00E94340920F039F430
:101060009F3F19F426F40C942A090EF4E095E7FB4F
:101070000C942409E92F0E944C0958F3BA1762070F
:1010800073078407950720F079F4A6F50C946E0990
:101090000EF4E0950B2EBA2FA02D0B01B901900193
:1010A0000C01CA01A0011124FF27591B99F0593FD7
:1010B00050F4503E68F11A16F040A22F232F342F1F
:1010C0004427585FF3CF469537952795A795F0406D
:1010D0005395C9F77EF41F16BA0B620B730B840B82
:1010E000BAF09150A1F0FF0FBB1F661F771F881F3A
:1010F000C2F70EC0BA0F621F731F841F48F4879592
:1011000077956795B795F7959E3F08F0B0CF939583
:10111000880F08F09927EE0F9795879508950E94FC
:10112000000908F481E008950E94540988F09F574F
:1011300098F0B92F9927B751B0F0E1F0660F771FFB
:10114000881F991F1AF0BA95C9F714C0B13091F0F1
:101150000E946E09B1E008950C946E09672F782FF4
:101160008827B85F39F0B93FCCF3869577956795B6
:10117000B395D9F73EF490958095709561957F4F22
:101180008F4F9F4F0895E89409C097FB3EF49095C8
:101190008095709561957F4F8F4F9F4F9923A9F050
:1011A000F92F96E9BB279395F695879577956795DF
:1011B000B795F111F8CFFAF4BB0F11F460FF1BC023
:1011C0006F5F7F4F8F4F9F4F16C0882311F096E9B6
:1011D00011C0772321F09EE8872F762F05C0662364
:1011E00071F096E8862F70E060E02AF09A95660F1D
:1011F000771F881FDAF7880F9695879597F90895D6
:10120000990F0008550FAA0BE0E8FEEF1616170617
:10121000E807F907C0F012161306E407F50798F07F
:10122000621B730B840B950B39F40A2661F0232B98
:10123000242B252B21F408950A2609F4A140A69514
:101240008FEF811D811D089597F99F6780E870E0F9
:1012500060E008959FEF80EC089500240A9416162C
:10126000170618060906089500240A941216130694
:10127000140605060895092E0394000C11F4882322
:1012800052F0BB0F40F4BF2B11F460FF04C06F5F3E
:101290007F4F8F4F9F4F089557FD9058440F551F14
:1012A00059F05F3F71F04795880F97FB991F61F0E8
:1012B0009F3F79F087950895121613061406551F5F
:1012C000F2CF4695F1DF08C0161617061806991FCB
:1012D000F1CF86957105610508940895E894BB27C0
:1012E00066277727CB0197F908950E94000908F433
:1012F0008FEF08950E948D090C943B090E942D09DF
:1013000038F00E94340920F0952311F00C94240940
:101310000C942A0911240C946F090E944C0970F353
:10132000959FC1F3950F50E0551F629FF001729F8A
:10133000BB27F00DB11D639FAA27F00DB11DAA1F99
:10134000649F6627B00DA11D661F829F2227B00DE6
:10135000A11D621F739FB00DA11D621F839FA00D71
:10136000611D221F749F3327A00D611D231F849FC1
:10137000600D211D822F762F6A2F11249F57504018
:101380009AF0F1F088234AF0EE0FFF1FBB1F661F93
:10139000771F881F91505040A9F79E3F510580F05C
:1013A0000C9424090C946F095F3FE4F3983ED4F346
:1013B000869577956795B795F795E7959F5FC1F700
:1013C000FE2B880F911D9695879597F908950E9499
:1013D0000009880B990B089597FB072E16F40094CB
:1013E00007D077FD09D00E94470A07FC05D03EF4DC
:1013F000909581959F4F0895709561957F4F0895C1
:10140000A1E21A2EAA1BBB1BFD010DC0AA1FBB1F08
:10141000EE1FFF1FA217B307E407F50720F0A21B7A
:10142000B30BE40BF50B661F771F881F991F1A94E7
:1014300069F760957095809590959B01AC01BD0111
:10144000CF010895052E97FB1EF400940E94390ADF
:1014500057FD07D00E94000A07FC03D04EF40C94FD
:10146000390A50954095309521953F4F4F4F5F4F2A
:10147000089590958095709561957F4F8F4F9F4F00
:101480000895EE0FFF1F0590F491E02D0994AA1B1B
:10149000BB1B51E107C0AA1FBB1FA617B70710F05F
:1014A000A61BB70B881F991F5A95A9F78095909591
:1014B000BC01CD01089581E090E0F8940C94600A9D
:0414C000F894FFCFCE
:1014C40000000000EC03550383033904B4039203C2
:1014D400A6034761732073656E736F722077617220
:1014E4006D696E6720757021000D0A00636D0053ED
:1014F400656E736F722056616C75653A20006E617B
:0A1504006E00696E66006F766600E7
:00000001FF
