:100000000C945D000C9485000C9485000C94850084
:100010000C9485000C9485000C9485000C9485004C
:100020000C9485000C9485000C9485000C9485003C
:100030000C9485000C9485000C9485000C9485002C
:100040000C9457020C9485000C94C7020C94A102E6
:100050000C9485000C9485000C9485000C9485000C
:100060000C9485000C9485000000000024002700FB
:100070002A0000000000250028002B0004040404CE
:100080000404040402020202020203030303030342
:10009000010204081020408001020408102001021F
:1000A00004081020000000080002010000030407FB
:1000B0000000000000000000BA0411241FBECFEFB2
:1000C000D8E0DEBFCDBF11E0A0E0B1E0E0ECFDE0A4
:1000D00002C005900D92A834B107D9F721E0A8E439
:1000E000B1E001C01D92A23FB207E1F710E0CDE5FB
:1000F000D0E004C02197FE010E94D306CC35D10781
:10010000C9F70E94F9020C94DE060C94000090E0FE
:10011000FC01EC55FF4F2491FC01E057FF4F349157
:10012000FC01E458FF4FE491EE2309F43CC0222384
:1001300039F1233091F038F42130A9F0223001F563
:1001400084B58F7D12C0273091F02830A1F0243083
:10015000B9F4809180008F7D03C0809180008F77FB
:10016000809380000DC084B58F7784BD09C08091D5
:10017000B0008F7703C08091B0008F7D8093B00076
:10018000F0E0EE0FFF1FEE58FF4FA591B4919FB71F
:10019000F894611104C08C913095382302C0EC9121
:1001A0003E2B3C939FBF08953FB7F8948091510137
:1001B00090915201A0915301B091540126B5A89B92
:1001C00005C02F3F19F00196A11DB11D3FBFBA2FE9
:1001D000A92F982F8827820F911DA11DB11DBC0149
:1001E000CD0142E0660F771F881F991F4A95D1F70E
:1001F00008958F929F92AF92BF92CF92DF92EF922B
:10020000FF926B017C010E94D4004B015C01C11480
:10021000D104E104F104F1F00E94D400DC01CB012F
:1002200088199909AA09BB09883E9340A105B1051F
:1002300070F321E0C21AD108E108F10888EE880EB7
:1002400083E0981EA11CB11CC114D104E104F10487
:1002500019F7DDCFFF90EF90DF90CF90BF90AF9078
:100260009F908F900895CF92DF92EF92FF920F931D
:100270001F93CF93DF936C017A018B01C0E0D0E034
:10028000CE15DF0581F0D8016D918D01D601ED917C
:10029000FC910190F081E02DC6010995892B11F0A8
:1002A0002196EECF7E01C701DF91CF911F910F9173
:1002B000FF90EF90DF90CF900895089580E090E058
:1002C0000895FC01538D448D252F30E0842F90E05C
:1002D000821B930B541710F0CF9608950197089541
:1002E000FC01918D828D981761F0828DDF01A80F3E
:1002F000B11D5D968C91928D9F5F9F73928F90E060
:1003000008958FEF9FEF0895FC01918D828D9817CE
:1003100031F0828DE80FF11D858D90E008958FEF0B
:100320009FEF0895FC01918D228D892F90E0805CD4
:100330009F4F821B91098F739927089585E591E05E
:100340000E94920121E0892B09F420E0822F089578
:10035000FC01848DDF01A80FB11DA35ABF4F2C9162
:10036000848D90E001968F739927848FA689B78931
:100370002C93A089B1898C91837080648C93938D28
:10038000848D981306C00288F389E02D80818F7DCB
:1003900080830895EF92FF920F931F93CF93DF9383
:1003A000EC0181E0888F9B8D8C8D981305C0E889C6
:1003B000F989808185FD26C0F62E0B8D10E00F5F38
:1003C0001F4F0F731127E02E8C8DE8120CC00FB653
:1003D00007FCFACFE889F989808185FFF5CFCE0146
:1003E0000E94A801F1CF8B8DFE01E80FF11DE35AA9
:1003F000FF4FF0829FB7F8940B8FEA89FB898081C9
:1004000080620AC09FB7F894EE89FF896083E8890B
:10041000F98980818370806480839FBF81E090E050
:10042000DF91CF911F910F91FF90EF900895CF939F
:10043000DF93EC01888D8823C9F0EA89FB898081EC
:1004400085FD05C0A889B9898C9186FD0FC00FB6BE
:1004500007FCF5CF808185FFF2CFA889B9898C91FF
:1004600085FFEDCFCE010E94A801E7CFDF91CF91AC
:10047000089580E090E0892B29F00E949E0181116F
:100480000C9400000895009769F0FC010190002091
:10049000E9F73197AF01481B590BBC0185E591E0A5
:1004A0000C94330180E090E008950E94D9061F92D9
:1004B0000F920FB60F9211242F933F938F939F9318
:1004C000AF93BF9380914D0190914E01A0914F0148
:1004D000B091500130914C0123E0230F2D3720F4CF
:1004E0000196A11DB11D05C026E8230F0296A11D8E
:1004F000B11D20934C0180934D0190934E01A09328
:100500004F01B09350018091510190915201A091FF
:100510005301B09154010196A11DB11D8093510169
:1005200090935201A0935301B0935401BF91AF91A6
:100530009F918F913F912F910F900FBE0F901F9021
:1005400018951F920F920FB60F9211242F933F937D
:100550004F935F936F937F938F939F93AF93BF93CB
:10056000EF93FF9385E591E00E94A801FF91EF9141
:10057000BF91AF919F918F917F916F915F914F91BB
:100580003F912F910F900FBE0F901F9018951F92C3
:100590000F920FB60F9211242F938F939F93EF9387
:1005A000FF93E0916501F09166018081E0916B011C
:1005B000F0916C0182FD12C0908180916E018F5F7D
:1005C0008F7320916F01821751F0E0916E01F0E07E
:1005D000EB5AFE4F958F80936E0101C08081FF9191
:1005E000EF919F918F912F910F900FBE0F901F90C1
:1005F0001895CF93DF93CDB7DEB7A2970FB6F894D7
:10060000DEBF0FBECDBF789484B5826084BD84B553
:10061000816084BD85B5826085BD85B5816085BDFD
:1006200080916E00816080936E00109281008091B5
:10063000810082608093810080918100816080933D
:100640008100809180008160809380008091B10062
:1006500084608093B1008091B00081608093B0008D
:1006600080917A00846080937A0080917A00826021
:1006700080937A0080917A00816080937A008091E3
:100680007A00806880937A001092C100E091650141
:10069000F091660182E08083E0916101F091620156
:1006A0001082E0916301F09164018FEC80831092DD
:1006B0006D01E0916901F0916A0186E08083E0912B
:1006C0006701F0916801808180618083E09167011A
:1006D000F0916801808188608083E0916701F091EA
:1006E0006801808180688083E0916701F0916801F2
:1006F00080818F7D808382E191E00E94430289E2C4
:1007000091E00E94430260E27EE480E090E00E947B
:10071000F900ECE9F0E02491E8E8F0E08491882326
:1007200099F090E0880F991FFC01E859FF4FA591BF
:10073000B491FC01EE58FF4F859194918FB7F894D6
:10074000EC91E22BEC938FBF60E08CE00E9487007D
:100750009AE0892E912CA12CB12C81E480937C000D
:1007600080917A00806480937A0080917A0086FD7F
:10077000FCCF609178008091790070E0782B072E93
:10078000000C880B990B0E948A05609348017093B6
:10079000490180934A0190934B018CE291E00E94C1
:1007A0004302C0904801D0904901E0904A01F09086
:1007B0004B01A7019601C701B6010E94AC06882330
:1007C00019F08BE391E01AC026013701E89477F81D
:1007D0002FEF3FEF4FE75FE7C301B2010E94AC0686
:1007E00081110FC02FEF3FEF4FE75FE7C301B20169
:1007F0000E94540518162CF48FE391E00E944302E6
:100800009BC02FEF3FEF4FE75FE4C701B6010E94A7
:100810003A0618161CF483E491E0F0CF2FEF3FEF77
:100820004FE75FECC701B6010E94540587FDF3CF87
:1008300020E030E0A901C701B6010E94540587FFFE
:1008400009C06DE285E591E00E94CA01F7FAF094D3
:10085000F7F8F0942AE037ED43EA5BE3C701B6010D
:100860000E94E8042B013C010E9459056B017C01A8
:100870000E9488059B01AC01C301B2010E94E704FC
:100880001B012C0119A28E010F5D1F4F0AA3712EAF
:10089000C701B601A50194010E94B10669017A0160
:1008A000605DF80162938F01232B242B252B81F7A8
:1008B000CF010E9443026EE285E591E00E94CA01E9
:1008C00083E0F82EFA94FF20B9F120E030E040E216
:1008D00051E4C201B1010E943F061B012C010E949C
:1008E00059059B0140E050E019A20AA1172D662E80
:1008F000C32ED42EE52ECA01B901A50194010E9490
:10090000B106605DF80162938F0121153105410543
:10091000510589F7CF010E944302662D7C2D8D2D54
:100920009E2D0E9488059B01AC01C201B1010E946D
:10093000E7041B012C01C6CF20E030E0A901609143
:1009400048017091490180914A0190914B010E94A8
:100950005405181614F061E001C060E08CE00E94BC
:10096000870068EE73E080E090E00E94F9000E944A
:100970003902F3CEE5E5F1E01382128288EE93E0CE
:10098000A0E0B0E084839583A683B78384E091E000
:100990009183808385EC90E09587848784EC90E058
:1009A0009787868780EC90E0918B808B81EC90E03C
:1009B000938B828B82EC90E0958B848B86EC90E01D
:1009C000978B868B118E128E138E148E089550582D
:1009D000BB27AA270E94FF040C9400060E94F20580
:1009E00038F00E94F90520F039F49F3F19F426F4FD
:1009F0000C94EF050EF4E095E7FB0C94E905E92F64
:100A00000E94110658F3BA17620773078407950707
:100A100020F079F4A6F50C9433060EF4E0950B2E35
:100A2000BA2FA02D0B01B90190010C01CA01A00140
:100A30001124FF27591B99F0593F50F4503E68F19B
:100A40001A16F040A22F232F342F4427585FF3CFDC
:100A5000469537952795A795F0405395C9F77EF4AD
:100A60001F16BA0B620B730B840BBAF09150A1F0F6
:100A7000FF0FBB1F661F771F881FC2F70EC0BA0F7C
:100A8000621F731F841F48F4879577956795B79504
:100A9000F7959E3F08F0B0CF9395880F08F09927FF
:100AA000EE0F9795879508950E94C50508F481E09B
:100AB00008950E94190688F09F5798F0B92F99273A
:100AC000B751B0F0E1F0660F771F881F991F1AF039
:100AD000BA95C9F714C0B13091F00E943306B1E065
:100AE00008950C943306672F782F8827B85F39F064
:100AF000B93FCCF3869577956795B395D9F73EF4D2
:100B000090958095709561957F4F8F4F9F4F089579
:100B1000E89409C097FB3EF4909580957095619597
:100B20007F4F8F4F9F4F9923A9F0F92F96E9BB274D
:100B30009395F695879577956795B795F111F8CFC9
:100B4000FAF4BB0F11F460FF1BC06F5F7F4F8F4F34
:100B50009F4F16C0882311F096E911C0772321F02A
:100B60009EE8872F762F05C0662371F096E8862FC2
:100B700070E060E02AF09A95660F771F881FDAF719
:100B8000880F9695879597F90895990F0008550F46
:100B9000AA0BE0E8FEEF16161706E807F907C0F003
:100BA00012161306E407F50798F0621B730B840B0B
:100BB000950B39F40A2661F0232B242B252B21F4E5
:100BC00008950A2609F4A140A6958FEF811D811D85
:100BD000089597F99F6780E870E060E008959FEFBF
:100BE00080EC089500240A941616170618060906C4
:100BF000089500240A941216130614060506089593
:100C0000092E0394000C11F4882352F0BB0F40F41A
:100C1000BF2B11F460FF04C06F5F7F4F8F4F9F4F5A
:100C2000089557FD9058440F551F59F05F3F71F0DC
:100C30004795880F97FB991F61F09F3F79F0879543
:100C40000895121613061406551FF2CF4695F1DFCC
:100C500008C0161617061806991FF1CF869571055C
:100C6000610508940895E894BB2766277727CB0190
:100C700097F908950E94C50508F48FEF08950E9422
:100C800052060C9400060E94F20538F00E94F90505
:100C900020F0952311F00C94E9050C94EF05112434
:100CA0000C9434060E94110670F3959FC1F3950FC2
:100CB00050E0551F629FF001729FBB27F00DB11DE0
:100CC000639FAA27F00DB11DAA1F649F6627B00D70
:100CD000A11D661F829F2227B00DA11D621F739F59
:100CE000B00DA11D621F839FA00D611D221F749F67
:100CF0003327A00D611D231F849F600D211D822FAE
:100D0000762F6A2F11249F5750409AF0F1F08823D4
:100D10004AF0EE0FFF1FBB1F661F771F881F915001
:100D20005040A9F79E3F510580F00C94E9050C94C2
:100D300034065F3FE4F3983ED4F386957795679544
:100D4000B795F795E7959F5FC1F7FE2B880F911D2B
:100D50009695879597F908950E94C505880B990B7C
:100D60000895A1E21A2EAA1BBB1BFD010DC0AA1FEC
:100D7000BB1FEE1FFF1FA217B307E407F50720F004
:100D8000A21BB30BE40BF50B661F771F881F991F7F
:100D90001A9469F760957095809590959B01AC01C8
:100DA000BD01CF010895EE0FFF1F0590F491E02DD6
:100DB000099481E090E0F8940C94DE06F894FFCF5B
:100DC00000000000CA0133016101170292017001A5
:100DD00084014761732073656E736F72207761724F
:100DE0006D696E6720757021000D0A0053656E7382
:100DF0006F722056616C75653A20006E616E0069F5
:080E00006E66006F76660000CB
:00000001FF
