:100000000C946C000C9489000C9489000C94890069
:100010000C9489000C9489000C9489000C9489003C
:100020000C9489000C9489000C9489000C9489002C
:100030000C9489000C9489000C9489000C9489001C
:100040000C94E8020C9489000C9489000C948900AB
:100050000C9489000C9489000C9489000C948900FC
:100060000C9489000C94890063016A017601870170
:10007000890190019C01AD01C301C5010000000090
:1000800023002600290000000000240027002A0089
:1000900000000000250028002B00040404040404D0
:1000A0000404020202020202030303030303010227
:1000B00004081020408001020408102001020408F6
:1000C00010200000000800020100000304070000E7
:1000D000000000000000E60311241FBECFEFD8E0AF
:1000E000DEBFCDBF21E0A0E0B1E001C01D92A33290
:1000F000B207E1F710E0CCE6D0E004C02197FE01A2
:100100000E945404CB36D107C9F70E9432030C94E5
:1001100090040C940000833081F028F4813099F031
:100120008230A1F008958730A9F08830B9F084308A
:10013000D1F4809180008F7D03C0809180008F7703
:1001400080938000089584B58F7702C084B58F7D39
:1001500084BD08958091B0008F7703C08091B00076
:100160008F7D8093B00008951F93CF93DF93282F46
:1001700030E0F901EE53FF4F8491F901E255FF4F52
:10018000D491F901E656FF4FC491CC23C1F0162F4C
:1001900081110E948B00EC2FF0E0EE0FFF1FE05763
:1001A000FF4FA591B4919FB7F894111104C08C91A1
:1001B000D095D82302C0EC91DE2BDC939FBFDF915A
:1001C000CF911F910895CF93DF93EC01809111019E
:1001D00090911201029709F5C130D10569F024F41C
:1001E0002097D9F460E009C0C230D10561F0C33076
:1001F000D10599F460E008C061E0809115010E948A
:10020000B40061E006C061E0809115010E94B40075
:1002100060E0809117010E94B400809111019091DB
:100220001201049709F03FC0C130D105B9F04CF478
:100230002097C9F561E0809115010E94B40060E04B
:1002400013C0C230D105D9F0C330D10561F561E0EA
:10025000809115010E94B40060E017C060E08091B9
:1002600015010E94B40061E0809117010E94B40062
:1002700061E0809119010E94B40060E010C060E06C
:10028000809115010E94B40061E0809117010E94E5
:10029000B40060E0809119010E94B40061E0809197
:1002A0001B010E94B40080911101909112010597E9
:1002B00009F086C0CA30D10508F082C0FE01EC5CAE
:1002C000FF4F0C94540460E0809115010E94B4002B
:1002D00061E061C060E0809115010E94B40061E0BE
:1002E000809117010E94B40060E05AC060E08091E4
:1002F00015010E94B40061E0809117010E94B400D2
:1003000060E0809119010E94B40061E04EC060E09D
:1003100001C061E0809115010E94B40061E006C057
:1003200061E0809115010E94B40060E080911701A6
:100330000E94B40060E00BC061E0809115010E9452
:10034000B40060E0809117010E94B40061E08091E8
:1003500019010E94B40061E010C061E080911501B4
:100360000E94B40060E0809117010E94B40061E037
:10037000809119010E94B40060E080911B010E94ED
:10038000B40060E017C061E001C060E08091150139
:100390000E94B40060E0809117010E94B40061E007
:1003A000809119010E94B40060E080911B010E94BD
:1003B000B40061E080911D01DF91CF910C94B400F5
:1003C000DF91CF910895CF93DF9390E0FC01E25548
:1003D000FF4F2491FC01E656FF4F8491882361F181
:1003E00090E0880F991FFC01EA57FF4FC591D49107
:1003F000FC01E057FF4FA591B491611109C09FB76F
:10040000F8948881209582238883EC912E230BC059
:10041000623061F49FB7F8948881322F309583233E
:100420008883EC912E2B2C939FBF06C08FB7F89436
:10043000E8812E2B28838FBFDF91CF9108953FB79E
:10044000F8948091050190910601A0910701B09167
:10045000080126B5A89B05C02F3F19F00196A11DE4
:10046000B11D3FBFBA2FA92F982F8827820F911D4A
:10047000A11DB11DBC01CD0142E0660F771F881F91
:10048000991F4A95D1F708954F925F926F927F928C
:100490008F929F92AF92BF92EF92FF920F931F9312
:1004A000CF93DF93EC0197FF04C0CC27DD27C81B57
:1004B000D90B181619063CF481E090E090930A01DC
:1004C0008093090106C0892B21F010920A01109235
:1004D000090104E010E08AE0E82EF12C209709F4ED
:1004E00068C00E941F0280901F0190902001A09080
:1004F0002101B09022012B013C01481859086A08DB
:100500007B0880900B0190900C01A0900D01B090A1
:100510000E01481459046A047B0400F360931F0120
:100520007093200180932101909322012091090171
:1005300030910A018091130190911401213031050D
:1005400089F40196909314018093130120910F0177
:100550003091100182179307C1F410921401109288
:10056000130113C0892B41F480910F019091100168
:1005700090931401809313018091130190911401C1
:1005800001979093140180931301219720911101F9
:1005900030911201809113019091140125303105A1
:1005A00011F4B70101C0B8010E9421040E94E300C8
:1005B00095CFDF91CF911F910F91FF90EF90BF905A
:1005C000AF909F908F907F906F905F904F90089525
:1005D0001F920F920FB60F9211242F933F938F9378
:1005E0009F93AF93BF938091010190910201A091DD
:1005F0000301B09104013091000123E0230F2D3756
:1006000020F40196A11DB11D05C026E8230F029616
:10061000A11DB11D2093000180930101909302015F
:10062000A0930301B093040180910501909106010C
:10063000A0910701B09108010196A11DB11D809301
:10064000050190930601A0930701B0930801BF91A3
:10065000AF919F918F913F912F910F900FBE0F906F
:100660001F901895789484B5826084BD84B58160AC
:1006700084BD85B5826085BD85B5816085BD80916D
:100680006E00816080936E001092810080918100E5
:1006900082608093810080918100816080938100DD
:1006A000809180008160809380008091B10084609F
:1006B0008093B1008091B00081608093B000809100
:1006C0007A00846080937A0080917A0082608093BF
:1006D0007A0080917A00816080937A0080917A001C
:1006E000806880937A001092C10061E08CE00E94E3
:1006F000E30160E08DE00E94E30161E084E00E949C
:10070000E30161E085E00E94E30161E086E00E9490
:10071000E30161E087E00E94E30120910F01309145
:100720001001032E000C440B550B60E077E883E9C1
:1007300093E00E943504CA01B9012CE231E040E0A7
:1007400050E00E94350420930B0130930C0140933C
:100750000D0150930E01CFECD0E00BEB10E097EAC7
:10076000E92E90E0F92E20E0C22E20E0D22EFE01EC
:100770008491F801A490F701B490BB20F1F08111AD
:100780000E948B00EB2DF0E0EE0FFF1FE458FF4FAF
:10079000A591B4918C918A2181F061E08CE00E9456
:1007A000B40081E090E00E9444020E941F02C11444
:1007B000D104E9F20E940000DACF60E08CE00E94F0
:1007C000B40080E090E00E944402F1CF0F931F93A9
:1007D000CF93DF93C9E0D1E01B861A861982188275
:1007E0001E8A1F8A188E198E80E490E09F838E8364
:1007F00004E010E01D870C8785E090E09F878E87DE
:1008000086E090E0998B888B87E090E09B8B8A8BC9
:1008100061E084E00E94E30161E08E850E94E301D3
:1008200061E088890E94E30161E08A890E94E30116
:100830001D8A1C8A19870887DF91CF911F910F911C
:10084000089597FB072E16F4009407D077FD09D082
:100850000E945A0407FC05D03EF4909581959F4F65
:100860000895709561957F4F0895052E97FB1EF4AE
:1008700000940E944C0457FD07D00E946E0407FCB0
:1008800003D04EF40C944C0450954095309521952E
:100890003F4F4F4F5F4F08959095809570956195AC
:1008A0007F4F8F4F9F4F0895EE0FFF1F0590F491DC
:1008B000E02D0994AA1BBB1B51E107C0AA1FBB1F57
:1008C000A617B70710F0A61BB70B881F991F5A95DC
:1008D000A9F780959095BC01CD010895A1E21A2E4B
:1008E000AA1BBB1BFD010DC0AA1FBB1FEE1FFF1FD4
:1008F000A217B307E407F50720F0A21BB30BE40B24
:10090000F50B661F771F881F991F1A9469F760956A
:100910007095809590959B01AC01BD01CF01089524
:04092000F894FFCF79
:00000001FF
